{
  "contractName": "Migrations",
  "abi": [
    {
      "inputs": [],
      "stateMutability": "nonpayable",
      "type": "constructor"
    },
    {
      "inputs": [],
      "name": "last_completed_migration",
      "outputs": [
        {
          "internalType": "uint256",
          "name": "",
          "type": "uint256"
        }
      ],
      "stateMutability": "view",
      "type": "function"
    },
    {
      "inputs": [],
      "name": "owner",
      "outputs": [
        {
          "internalType": "address",
          "name": "",
          "type": "address"
        }
      ],
      "stateMutability": "view",
      "type": "function"
    },
    {
      "inputs": [
        {
          "internalType": "uint256",
          "name": "completed",
          "type": "uint256"
        }
      ],
      "name": "setCompleted",
      "outputs": [],
      "stateMutability": "nonpayable",
      "type": "function"
    },
    {
      "inputs": [
        {
          "internalType": "address",
          "name": "newAdress",
          "type": "address"
        }
      ],
      "name": "upgarde",
      "outputs": [],
      "stateMutability": "nonpayable",
      "type": "function"
    }
  ],
  "bytecode": "0x608060405234801561001057600080fd5b50336000806101000a81548173ffffffffffffffffffffffffffffffffffffffff021916908373ffffffffffffffffffffffffffffffffffffffff16021790555061038f806100606000396000f3fe608060405234801561001057600080fd5b506004361061004c5760003560e01c8063445df0ac146100515780636a64e92b1461006f5780638da5cb5b1461008b578063fdacd576146100a9575b600080fd5b6100596100c5565b60405161006691906102d4565b60405180910390f35b61008960048036038101906100849190610249565b6100cb565b005b610093610199565b6040516100a091906102b9565b60405180910390f35b6100c360048036038101906100be9190610272565b6101bd565b005b60015481565b60008054906101000a900473ffffffffffffffffffffffffffffffffffffffff1673ffffffffffffffffffffffffffffffffffffffff163373ffffffffffffffffffffffffffffffffffffffff161461012357600080fd5b60008190508073ffffffffffffffffffffffffffffffffffffffff1663fdacd5766001546040518263ffffffff1660e01b815260040161016391906102d4565b600060405180830381600087803b15801561017d57600080fd5b505af1158015610191573d6000803e3d6000fd5b505050505050565b60008054906101000a900473ffffffffffffffffffffffffffffffffffffffff1681565b60008054906101000a900473ffffffffffffffffffffffffffffffffffffffff1673ffffffffffffffffffffffffffffffffffffffff163373ffffffffffffffffffffffffffffffffffffffff161461021557600080fd5b8060018190555050565b60008135905061022e8161032b565b92915050565b60008135905061024381610342565b92915050565b60006020828403121561025b57600080fd5b60006102698482850161021f565b91505092915050565b60006020828403121561028457600080fd5b600061029284828501610234565b91505092915050565b6102a4816102ef565b82525050565b6102b381610321565b82525050565b60006020820190506102ce600083018461029b565b92915050565b60006020820190506102e960008301846102aa565b92915050565b60006102fa82610301565b9050919050565b600073ffffffffffffffffffffffffffffffffffffffff82169050919050565b6000819050919050565b610334816102ef565b811461033f57600080fd5b50565b61034b81610321565b811461035657600080fd5b5056fea2646970667358221220f715f3aed2fc01bb054ad90bbc7f27a43e164d3e8d5a842f18625cdba870f7b964736f6c63430008000033",
  "immutableReferences": {},
  "source": "// SPDX-License-Identifier: MIT\r\npragma solidity >=0.7.0;\r\ncontract Migrations{\r\n    address public owner;\r\n    uint public last_completed_migration;\r\n    constructor() {\r\n        owner = msg.sender;\r\n    }\r\n    modifier restrected() {\r\n        require(msg.sender == owner);\r\n        _;\r\n    }\r\n    function setCompleted(uint completed)public restrected {\r\n        last_completed_migration = completed;\r\n    }\r\n    function upgarde(address newAdress)public restrected {\r\n        Migrations upgraded = Migrations(newAdress);\r\n        upgraded.setCompleted(last_completed_migration);\r\n\r\n    }\r\n}",
  "sourcePath": "C:/Users/LED/Desktop/nft/contracts/Migrations.sol",
  "compiler": {
    "name": "solc",
    "version": "0.8.0+commit.c7dfd78e.Emscripten.clang"
  },
  "schemaVersion": "3.3.4",
  "updatedAt": "2022-09-04T11:49:12.600Z",
  "networkType": "conflux",
  "devdoc": {
    "kind": "dev",
    "methods": {},
    "version": 1
  },
  "userdoc": {
    "kind": "user",
    "methods": {},
    "version": 1
  }
}